:020000040800F2
:10000000600600203902000841020008430200088F
:1000100045020008470200084902000800000000ED
:100020000000000000000000000000004B0200087B
:100030004D020008000000004F02000851020008B5
:10004000530200085302000853020008530200083C
:10005000530200085302000853020008530200082C
:10006000530200085302000853020008530200081C
:10007000530200085302000853020008530200080C
:1000800053020008530200085302000853020008FC
:1000900053020008530200085302000853020008EC
:1000A00053020008530200085302000853020008DC
:1000B0005302000853020008000000005302000829
:1000C0005302000800000000000000005302000876
:1000D0000000000053020008530200085302000809
:1000E0005302000853020008000000000000000056
:1000F0000000000000000000000000000000000000
:1001000000000000000000000000000000000000EF
:100110000000000000000000530200085302000825
:1001200000000000000000000000000000000000CF
:1001300000000000000000000000000000000000BF
:1001400053020008530200080000000000000000F5
:10015000000000000000000000000000000000009F
:10016000000000000000000000000000000000008F
:10017000000000000000000000000000000000007F
:10018000000000005302000800F002F800F044F8FC
:1001900014A696E8000CB244B344DA4501D100F04D
:1001A0003BF8BAE80F000FA696E83000A5EB04056F
:1001B00004EB0607AAEB0704A7F101074FEA1515A0
:1001C0004FEA3414A4F10104AC4201D300F024F846
:1001D00013F0010F18BFFB1A43F0010300F001F800
:1001E000DBE71847F8010000080200007047000034
:1001F0000023002400250026103A28BF78C1FBD830
:10020000520728BF30C148BF0B6070471FB500F0D0
:10021000D7F81FBD10B510BD00F031F81146FFF73B
:10022000F5FF00F083F800F04FF803B4FFF7F2FF9A
:1002300003BC00F057F80000094880470948004710
:10024000FEE7FEE7FEE7FEE7FEE7FEE7FEE7FEE786
:10025000FEE7FEE704480549054A064B70470000E3
:10026000F5020008890100086000002060060020F7
:10027000600200206002002070477047704775469A
:1002800000F02CF8AE4605006946534620F0070002
:10029000854618B020B5FFF7DDFFBDE820404FF0E0
:1002A00000064FF000074FF000084FF0000BAC467F
:1002B000ACE8C009ACE8C009ACE8C009ACE8C009CA
:1002C00021F007018D46704710B50446AFF300805A
:1002D0002046BDE81040FFF7A8BF00000048704767
:1002E0000000002001491820ABBEFEE726000200F6
:1002F000704700004EF68851CEF20001086840F4C5
:10030000700008607047000082B0019000200090EB
:10031000FFE700980199884205D2FFE7FFE70098C0
:1003200001300090F5E702B07047000080B584B05E
:100330000020039041F21401C4F20201086840F465
:100340008020086040F20041C4F60001086820F0F7
:10035000C0000860086840F04000086040F20441B6
:10036000C4F60001086820F00800086040F2084167
:10037000C4F60001086840F0C000086040F20C417B
:10038000C4F60001086820F0C0000860FFE740F2F2
:100390001441C4F600010191086840F008000860AB
:1003A00044F24020C0F20F000290FFF7ADFF019A27
:1003B0000298116821F008011160FFF7A5FFE6E738
:1003C000F1EE100A4FF6FF71C0F2C03120EA0100D1
:1003D00040F04070E1EE100A70470000EC030008A6
:0C03E0000000002060060000F001000892
:0400000508000239B4
:00000001FF
